:090C6700D2A0D2A1C2A0C2A122B8
:07000300C2A0D2A1D2A0228D
:020AB900AD0787
:100ABB00E4FB74807E00A803088006CEA2E713CE69
:100ACB0013D8F8FFEDF582EF558224FF92A0D2A147
:060ADB00C2A10BBB08DC08
:010AE10022F2
:100B6800E4FFFED2A130A00D7480A806088002C35D
:0B0B780013D8FC4207C2A10EBE08E823
:010B8300224F
:0A0C4900EF24FF92A0D2A1C2A12265
:080C1200120C677FA0120AB961
:0B0C1A00D2A0D2A1A2A0E433FFC2A12F
:010C250022AC
:100B84008C508D51AA07120C12AF02120AB9120C22
:0C0B94001AAF51120AB9120C1A02000329
:020AE200AC075F
:100AE400120C12AF04120AB9120C1A120C677FA16D
:100AF400120AB9120C1A120B68AE077F01120C49C4
:050B0400120003AF0622
:010B090022C9
:100BE800EF1FAC0670011E4C600A7D027CEFDCFE34
:040BF800DDFC80ECB4
:010BFC0022D6
:060C3A00C2A58F80D2A7C5
:080C40007F027EEFDEFEDFFC07
:010C48002289
:0A0C5300C2A6120C3AC2A7020C4020
:100B2D00CFCDCFCECCCE1206D27C007D0A1206D20E
:040B3D00ED2430FF74
:0A0B4100D2A6120C3AC2A7020C4023
:100BD200AE07BE0104ED148006BE0209ED243F44B7
:060BE20080FF120C5322FB
:100C26007F38120C537F0C120C537F06120C537F25
:040C360001020C5358
:0A0C5D00AC03120BD2AF04020B41EE
:060B0A008B508A51895254
:100B1000120BD2E4FDAB50AA51A9528D827583000D
:0C0B2000120693FF6006120B410D80E9E5
:010B2C0022A6
:0C0A86007F0AEA24FFFDE434FFFC7E0040
:080A92008E558F568C578D58CC
:100A9A007F017E00E4FBEBC39558E5576480F87448
:0E0AAA008098500AAC55AD561206C00B80E87D
:010AB800221B
:040B4B008A528B53EC
:100B4F00120BD2AA54EAD39400400D120A86AC526B
:080B5F00AD53120B2D1A80EDBD
:010B6700226B
:1009DB00120BD2C3EA64809480400B7F2B120B4125
:1009EB008A5E8B5F800E7F2D120B41C3E49BF55FFC
:1009FB00E49AF55EAA5DEAD39400400D120A86AC28
:090A0B005EAD5F120B2D1A80EDA7
:010A140022BF
:040A15008A628B6303
:100A1900120BD2AA64EAD3940040297F10120A88E3
:100A2900AC62AD63CFCDCFCECCCE1206D2EF540F90
:100A3900FEC3940AEE5004243080022437FF120BBF
:040A4900411A80D1FD
:010A4D002286
:040A4E008A678B68C0
:100A5200120BD2AA69EAD394004028EA24FFFDE4EB
:100A620034FFFC7F027E00120A92AC67AD68CFCDE4
:100A7200CFCECCCE1206D2EF54012430FF120B415E
:030A82001A80D205
:010A8500224E
:100BA000E4FDFC7FC0120C537F20120B410DBD00F1
:080BB000010CED64104C70F023
:010BB800221A
:100BB900E4FDFC7F80120C537F20120B410DBD0018
:080BC900010CED64104C70F00A
:010BD1002201
:10098F00504C45534520454E54455220434F444506
:10099F000057454C434F4D4500504C45534520455E
:1009AF004E544552204E45574300504C4553452019
:1009BF00454E544552204E45575500504C455345D2
:0C09CF0020454E544552204E455747002D
:100844000127000113000115010114000111000129
:100854001D00012B000121000128000120000112CC
:1008640000011F1420242C010000000000000000DF
:100874000000000000000000000000000000000074
:100884000000000000000000000000060901000054
:1008940000000006170000000000000124000123EE
:1008A40000010F00012500012600011600011002BD
:0C08B400012200011E00012902012A009F
:1008C100120BFD120C267FFF120AE28F2BE4F52694
:1008D100E526C3952B5029E4F525E52675F006A4F8
:1008E1002525FF120AE2E52675F006A4242C25250C
:1008F100F8A6070525E525C3940640DE052680D028
:10090100D2A3D2A212036312072712000EE51570BB
:100911000EE513700AE5277006E5147002C2A2E520
:0809210015B401E0D2A280DC54
:10036300E515B4011D7BFF7A09798F7D017F0112A9
:100373000B0AE520D3940040097B2AAD207F0212AB
:100383000C5DE5277040E515703CE5296402703685
:10039300E5137032E514702E120BB97BFF7A0979DD
:1003A300A07D017F01120B0A120BA07FC87E0012F1
:1003B3000BE8755401E4FBFA7D017F02120B4B7FBE
:1003C300C87E00120BE8E522B40106C2A3B295D29F
:1003D3008CE52764017065E5157061E52964027099
:1003E3005B7BFF7A0979A87D017F01120B0A120B4F
:1003F300A07FC87E00120BE8852025E525C394065F
:100403005013E52504FD755401E4FBFA7F02120B3A
:100413004B052580E6E520D394004019E4F525E556
:1004230025C39520500FE52504FD7B2A7F02120C7E
:100433005D052580EA7FC87E00120BE8E52964018B
:100443007058120BA07FC87E00120BE8852025E5AB
:1004530025C394065013E52504FD755401E4FBFA06
:100463007F02120B4B052580E6E520D39400402341
:10047300E4F525E525C395205019E52504FD7417FA
:100483002525F8E6FB7A007554017F02120B4B0514
:100493002580E07FC87E00120BE8E5297013120B5C
:1004A300B97BFF7A0979A07D017F01120B0A120B38
:1004B300A0E5136401704FE515704B7529027BFFAE
:1004C3007A0979B97D017F01120B0A120BA07F64AF
:1004D3007E00120BE8E520D394004023E4F525E5E4
:1004E30025C395205019E52504FD74172525F8E645
:1004F300FB7A007554017F02120B4B052580E07FC8
:10050300647E00120BE8E5146401704FE515704B2F
:100513007529027BFF7A0979CA7D017F01120B0AD3
:10052300120BA07F647E00120BE8E520D3940040F9
:1005330023E4F525E525C395205019E52504FD742D
:10054300172525F8E6FB7A007554017F02120B4B41
:0C055300052580E07F647E00120BE8228A
:1007270012055F8F1FE52114B5280E852128E528BE
:10073700C39407500705208003852821E51FB40DC2
:1007470009E5157005752701F51EE51FB40E09E5C6
:10075700157005751301F51EE51FB40B09E5157036
:1007670005751401F51EE51F640C7021E515701D54
:10077700E5137019E5277015E5147011120BB912FE
:100787000BA0E4F508751501752902F51EE51FB4E0
:100797000F1EE51E701AF52574172525F8E4F605D2
:1007A70025E525B406F2E4F528F521F520120BA07E
:0107B700221F
:10000E00E51E703AE528D394004033E52894075056
:10001E002DE51F640C6027E51F640D6021E51F644C
:10002E000E601BE51F640F6015E51F6410600FE581
:10003E001F6414600974162528F8A61F8010E52881
:10004E00C394064009E51F24F07003751101E515F0
:10005E006401600302013DE5116401600302013D8C
:10006E00F526E526C3952B5037E4F525E52675F0E4
:10007E0006A4242C2525F8E6FF74172525F8E6FEA0
:10008E00B50703751001EE6F6005E4F510800705E6
:10009E0025E525B406D6E51064016004052680C268
:1000AE00E5126401702AE5107026F52574092525E0
:1000BE00F8E6FF74172525F8E6FEB507037510015F
:1000CE00EE6F6005E4F51080070525E525B406DC26
:1000DE00E510B4010D852608E4F515751E01F5161B
:1000EE0080300516120BA0E516D39400401AE516C3
:1000FE00940350147FC87E00120BE8C2A37FC87E03
:10010E0000120BE8D2A3800AE516C39403400375D0
:10011E002201E4F52574172525F8E4F60525E525D5
:10012E00B406F2751002E4F528F521F511F520E577
:10013E0015600302026EE512600302026EE527648B
:10014E0001600302026EE5116401600302026EE5B6
:10015E0029640160030201EEF52574172525F8E6E2
:10016E00FFE50875F006A4242C2525F8A60705251D
:10017E00E525B406E5E4F525E50875F006A4242C7E
:10018E002525F8E6FD7C00E50875F006A42525FF7B
:10019E00120B847F147E00120BE80525E525C3940F
:1001AE000640D57F147E00120BE8E52BFD7C007F08
:1001BE00FF120B847F147E00120BE8E4F5257417F2
:1001CE002525F8E4F60525E525B406F2752902E4A1
:1001DE00F527751002F528F521F511F520751E018C
:1001EE00E5106402702CF525E50875F006A4242CA4
:1001FE002525F8E6FF74172525F8E6FEB5070375E5
:10020E001001EE6F6005E4F51080070525E525B4B5
:10021E0006D6E51064017021752901F525741725A0
:10022E0025F8E4F60525E525B406F2751003E4F588
:10023E0028F521F511F5208027E5107023F529F515
:10024E0027F52574172525F8E4F60525E525B406CA
:10025E00F2751002E4F528F521F511F520751E0151
:10026E00E5156003020315E5126003020315E5119F
:10027E0064016003020315E51364016003020315B4
:10028E00F52574172525F8E6FFE50875F006A42474
:10029E00322525F8A6070525E525B406E5E4F5255E
:1002AE00E50875F006A424322525F8E6FD7C00E568
:1002BE00080475F006A42525FF120B847F147E001A
:1002CE00120BE80525E525C3940640D47F147E0065
:1002DE00120BE8052BE52BFD7C007FFF120B847FB4
:1002EE00147E00120BE8E4F52574172525F8E4F6C4
:1002FE000525E525B406F2E4F5130508F528F521E4
:10030E00F511F520751E01E5157049E511640170B2
:10031E0043E5146401703DF52574172525F8E6FFB5
:10032E0074092525F8A6070525E525B406EBE4F5A1
:10033E002574172525F8E4F60525E525B406F2758E
:10034E001201E4F514F528F521F511F520751E01BD
:05035E00F50FD28C2216
:100BFD005389F0438901758AF0758CD8C28DC28CEA
:050C0D00D2A9D2AF22C4
:03000B00020929BE
:10092900C0E0C0D0758AF0758CD80524E524C3943D
:1009390064404E752400E516940340020523E51230
:10094900B40102050FE523C3941E4013E516940371
:10095900400D752300752200751600D2A38012E59B
:100969000FC3946E400BE512B40106750F007512A2
:1009790000E512700CE5167008C28C758AF0758C4A
:06098900D8D0D0D0E0320E
:10055F00755014E52260030206927590FFC2932036
:10056F00970E7F0AFE120BE83097FD75500105219B
:10057F0020960F7F0A7E00120BE83096FD7550040F
:10058F00052120950F7F0A7E00120BE83095FD752F
:10059F005007052120940F7F0A7E00120BE830943C
:1005AF00FDE4F55005217590FFC29220970F7F0A49
:1005BF007E00120BE83097FD755002052120960F33
:1005CF007F0A7E00120BE83096FD7550050521203D
:1005DF00950F7F0A7E00120BE83095FD75500805C8
:1005EF002120940D7F0A7E00120BE83094FD755088
:1005FF000B7590FFC29120970F7F0A7E00120BE8B8
:10060F003097FD755003052120960F7F0A7E00124B
:10061F000BE83096FD755006052120950F7F0A7E59
:10062F0000120BE83095FD755009052120940D7FC0
:10063F000A7E00120BE83094FD75500F7590FFC2C3
:10064F009020970D7F0A7E00120BE83097FD7550B2
:10065F000C20960D7F0A7E00120BE83096FD755028
:10066F000D20950D7F0A7E00120BE83095FD755019
:10067F000E20940D7F0A7E00120BE83094FD75500A
:03068F0010AF5059
:010692002245
:030000000207B83C
:0C07B800787FE4F6D8FD7581690207FF28
:10069300BB010CE58229F582E5833AF583E022501C
:1006A30006E92582F8E622BBFE06E92582F8E22266
:0D06B300E58229F582E5833AF583E4932280
:1006C000EF8DF0A4A8F0CF8CF0A428CE8DF0A42E4E
:0206D000FE2208
:1006D200BC000BBE0029EF8DF084FFADF022E4CC0C
:1006E200F875F008EF2FFFEE33FEEC33FCEE9DECD5
:1006F200984005FCEE9DFE0FD5F0E9E4CEFD22ED1B
:10070200F8F5F0EE8420D21CFEADF075F008EF2F64
:10071200FFED33FD4007985006D5F0F222C398FD55
:050722000FD5F0EA22F2
:1007C4000208C1E493A3F8E493A34003F68001F282
:1007D40008DFF48029E493A3F85407240CC8C33336
:1007E400C4540F4420C8834004F456800146F6DF05
:1007F400E4800B0102040810204080900844E47E49
:10080400019360BCA3FF543F30E509541FFEE493F9
:10081400A360010ECF54C025E060A840B8E493A3C0
:10082400FAE493A3F8E493A3C8C582C8CAC583CAEB
:10083400F0A3C8C582C8CAC583CADFE9DEE780BEA3
:0108C0000037
:00000001FF
